{
  "contractName": "SocialDapp",
  "abi": [
    {
      "inputs": [],
      "stateMutability": "nonpayable",
      "type": "constructor"
    },
    {
      "anonymous": false,
      "inputs": [
        {
          "indexed": true,
          "internalType": "address",
          "name": "owner",
          "type": "address"
        },
        {
          "indexed": true,
          "internalType": "address",
          "name": "approved",
          "type": "address"
        },
        {
          "indexed": true,
          "internalType": "uint256",
          "name": "tokenId",
          "type": "uint256"
        }
      ],
      "name": "Approval",
      "type": "event"
    },
    {
      "anonymous": false,
      "inputs": [
        {
          "indexed": true,
          "internalType": "address",
          "name": "owner",
          "type": "address"
        },
        {
          "indexed": true,
          "internalType": "address",
          "name": "operator",
          "type": "address"
        },
        {
          "indexed": false,
          "internalType": "bool",
          "name": "approved",
          "type": "bool"
        }
      ],
      "name": "ApprovalForAll",
      "type": "event"
    },
    {
      "anonymous": false,
      "inputs": [
        {
          "indexed": true,
          "internalType": "address",
          "name": "from",
          "type": "address"
        },
        {
          "indexed": true,
          "internalType": "address",
          "name": "to",
          "type": "address"
        },
        {
          "indexed": true,
          "internalType": "uint256",
          "name": "tokenId",
          "type": "uint256"
        }
      ],
      "name": "Transfer",
      "type": "event"
    },
    {
      "inputs": [
        {
          "internalType": "address",
          "name": "to",
          "type": "address"
        },
        {
          "internalType": "uint256",
          "name": "tokenId",
          "type": "uint256"
        }
      ],
      "name": "approve",
      "outputs": [],
      "stateMutability": "nonpayable",
      "type": "function"
    },
    {
      "inputs": [
        {
          "internalType": "address",
          "name": "owner",
          "type": "address"
        }
      ],
      "name": "balanceOf",
      "outputs": [
        {
          "internalType": "uint256",
          "name": "",
          "type": "uint256"
        }
      ],
      "stateMutability": "view",
      "type": "function",
      "constant": true
    },
    {
      "inputs": [
        {
          "internalType": "uint256",
          "name": "tokenId",
          "type": "uint256"
        }
      ],
      "name": "getApproved",
      "outputs": [
        {
          "internalType": "address",
          "name": "",
          "type": "address"
        }
      ],
      "stateMutability": "view",
      "type": "function",
      "constant": true
    },
    {
      "inputs": [
        {
          "internalType": "address",
          "name": "owner",
          "type": "address"
        },
        {
          "internalType": "address",
          "name": "operator",
          "type": "address"
        }
      ],
      "name": "isApprovedForAll",
      "outputs": [
        {
          "internalType": "bool",
          "name": "",
          "type": "bool"
        }
      ],
      "stateMutability": "view",
      "type": "function",
      "constant": true
    },
    {
      "inputs": [],
      "name": "name",
      "outputs": [
        {
          "internalType": "string",
          "name": "",
          "type": "string"
        }
      ],
      "stateMutability": "view",
      "type": "function",
      "constant": true
    },
    {
      "inputs": [
        {
          "internalType": "uint256",
          "name": "tokenId",
          "type": "uint256"
        }
      ],
      "name": "ownerOf",
      "outputs": [
        {
          "internalType": "address",
          "name": "",
          "type": "address"
        }
      ],
      "stateMutability": "view",
      "type": "function",
      "constant": true
    },
    {
      "inputs": [
        {
          "internalType": "address",
          "name": "from",
          "type": "address"
        },
        {
          "internalType": "address",
          "name": "to",
          "type": "address"
        },
        {
          "internalType": "uint256",
          "name": "tokenId",
          "type": "uint256"
        }
      ],
      "name": "safeTransferFrom",
      "outputs": [],
      "stateMutability": "nonpayable",
      "type": "function"
    },
    {
      "inputs": [
        {
          "internalType": "address",
          "name": "from",
          "type": "address"
        },
        {
          "internalType": "address",
          "name": "to",
          "type": "address"
        },
        {
          "internalType": "uint256",
          "name": "tokenId",
          "type": "uint256"
        },
        {
          "internalType": "bytes",
          "name": "data",
          "type": "bytes"
        }
      ],
      "name": "safeTransferFrom",
      "outputs": [],
      "stateMutability": "nonpayable",
      "type": "function"
    },
    {
      "inputs": [
        {
          "internalType": "address",
          "name": "operator",
          "type": "address"
        },
        {
          "internalType": "bool",
          "name": "approved",
          "type": "bool"
        }
      ],
      "name": "setApprovalForAll",
      "outputs": [],
      "stateMutability": "nonpayable",
      "type": "function"
    },
    {
      "inputs": [
        {
          "internalType": "bytes4",
          "name": "interfaceId",
          "type": "bytes4"
        }
      ],
      "name": "supportsInterface",
      "outputs": [
        {
          "internalType": "bool",
          "name": "",
          "type": "bool"
        }
      ],
      "stateMutability": "view",
      "type": "function",
      "constant": true
    },
    {
      "inputs": [],
      "name": "symbol",
      "outputs": [
        {
          "internalType": "string",
          "name": "",
          "type": "string"
        }
      ],
      "stateMutability": "view",
      "type": "function",
      "constant": true
    },
    {
      "inputs": [
        {
          "internalType": "uint256",
          "name": "tokenId",
          "type": "uint256"
        }
      ],
      "name": "tokenURI",
      "outputs": [
        {
          "internalType": "string",
          "name": "",
          "type": "string"
        }
      ],
      "stateMutability": "view",
      "type": "function",
      "constant": true
    },
    {
      "inputs": [
        {
          "internalType": "address",
          "name": "from",
          "type": "address"
        },
        {
          "internalType": "address",
          "name": "to",
          "type": "address"
        },
        {
          "internalType": "uint256",
          "name": "tokenId",
          "type": "uint256"
        }
      ],
      "name": "transferFrom",
      "outputs": [],
      "stateMutability": "nonpayable",
      "type": "function"
    },
    {
      "inputs": [
        {
          "internalType": "string",
          "name": "text",
          "type": "string"
        },
        {
          "internalType": "uint256",
          "name": "price",
          "type": "uint256"
        }
      ],
      "name": "post",
      "outputs": [],
      "stateMutability": "nonpayable",
      "type": "function"
    },
    {
      "inputs": [],
      "name": "getPosts",
      "outputs": [
        {
          "components": [
            {
              "internalType": "address",
              "name": "originalPoster",
              "type": "address"
            },
            {
              "internalType": "uint256",
              "name": "price",
              "type": "uint256"
            },
            {
              "internalType": "string",
              "name": "text",
              "type": "string"
            },
            {
              "internalType": "uint256",
              "name": "id",
              "type": "uint256"
            }
          ],
          "internalType": "struct SocialDapp.Post[]",
          "name": "",
          "type": "tuple[]"
        },
        {
          "internalType": "address[]",
          "name": "",
          "type": "address[]"
        }
      ],
      "stateMutability": "view",
      "type": "function",
      "constant": true
    },
    {
      "inputs": [
        {
          "internalType": "uint256",
          "name": "postId",
          "type": "uint256"
        }
      ],
      "name": "purchase",
      "outputs": [],
      "stateMutability": "payable",
      "type": "function",
      "payable": true
    }
  ],
  "bytecode": "0x60806040523480156200001157600080fd5b506040518060400160405280601381526020017f4554482d534f4349414c2d444150502d4e4654000000000000000000000000008152506040518060400160405280600381526020017f534450000000000000000000000000000000000000000000000000000000000081525081600090816200008f91906200032c565b508060019081620000a191906200032c565b505050600060068190555062000413565b600081519050919050565b7f4e487b7100000000000000000000000000000000000000000000000000000000600052604160045260246000fd5b7f4e487b7100000000000000000000000000000000000000000000000000000000600052602260045260246000fd5b600060028204905060018216806200013457607f821691505b6020821081036200014a5762000149620000ec565b5b50919050565b60008190508160005260206000209050919050565b60006020601f8301049050919050565b600082821b905092915050565b600060088302620001b47fffffffffffffffffffffffffffffffffffffffffffffffffffffffffffffffff8262000175565b620001c0868362000175565b95508019841693508086168417925050509392505050565b6000819050919050565b6000819050919050565b60006200020d620002076200020184620001d8565b620001e2565b620001d8565b9050919050565b6000819050919050565b6200022983620001ec565b62000241620002388262000214565b84845462000182565b825550505050565b600090565b6200025862000249565b620002658184846200021e565b505050565b5b818110156200028d57620002816000826200024e565b6001810190506200026b565b5050565b601f821115620002dc57620002a68162000150565b620002b18462000165565b81016020851015620002c1578190505b620002d9620002d08562000165565b8301826200026a565b50505b505050565b600082821c905092915050565b60006200030160001984600802620002e1565b1980831691505092915050565b60006200031c8383620002ee565b9150826002028217905092915050565b6200033782620000b2565b67ffffffffffffffff811115620003535762000352620000bd565b5b6200035f82546200011b565b6200036c82828562000291565b600060209050601f831160018114620003a457600084156200038f578287015190505b6200039b85826200030e565b8655506200040b565b601f198416620003b48662000150565b60005b82811015620003de57848901518255600182019150602085019450602081019050620003b7565b86831015620003fe5784890151620003fa601f891682620002ee565b8355505b6001600288020188555050505b505050505050565b61338380620004236000396000f3fe6080604052600436106100f35760003560e01c80636352211e1161008a578063b88d4fde11610059578063b88d4fde1461033b578063c87b56dd14610364578063e985e9c5146103a1578063efef39a1146103de576100f3565b80636352211e1461026d57806370a08231146102aa57806395d89b41146102e7578063a22cb46514610312576100f3565b806323b872dd116100c657806323b872dd146101c657806341f3004a146101ef57806342842e0e1461021b5780634e6c3c9514610244576100f3565b806301ffc9a7146100f857806306fdde0314610135578063081812fc14610160578063095ea7b31461019d575b600080fd5b34801561010457600080fd5b5061011f600480360381019061011a9190611e6c565b6103fa565b60405161012c9190611eb4565b60405180910390f35b34801561014157600080fd5b5061014a6104dc565b6040516101579190611f5f565b60405180910390f35b34801561016c57600080fd5b5061018760048036038101906101829190611fb7565b61056e565b6040516101949190612025565b60405180910390f35b3480156101a957600080fd5b506101c460048036038101906101bf919061206c565b6105b4565b005b3480156101d257600080fd5b506101ed60048036038101906101e891906120ac565b6106cb565b005b3480156101fb57600080fd5b5061020461072b565b60405161021292919061233b565b60405180910390f35b34801561022757600080fd5b50610242600480360381019061023d91906120ac565b6109de565b005b34801561025057600080fd5b5061026b600480360381019061026691906124a7565b6109fe565b005b34801561027957600080fd5b50610294600480360381019061028f9190611fb7565b610ae8565b6040516102a19190612025565b60405180910390f35b3480156102b657600080fd5b506102d160048036038101906102cc9190612503565b610b6e565b6040516102de919061253f565b60405180910390f35b3480156102f357600080fd5b506102fc610c25565b6040516103099190611f5f565b60405180910390f35b34801561031e57600080fd5b5061033960048036038101906103349190612586565b610cb7565b005b34801561034757600080fd5b50610362600480360381019061035d9190612667565b610ccd565b005b34801561037057600080fd5b5061038b60048036038101906103869190611fb7565b610d2f565b6040516103989190611f5f565b60405180910390f35b3480156103ad57600080fd5b506103c860048036038101906103c391906126ea565b610d97565b6040516103d59190611eb4565b60405180910390f35b6103f860048036038101906103f39190611fb7565b610e2b565b005b60007f80ac58cd000000000000000000000000000000000000000000000000000000007bffffffffffffffffffffffffffffffffffffffffffffffffffffffff1916827bffffffffffffffffffffffffffffffffffffffffffffffffffffffff191614806104c557507f5b5e139f000000000000000000000000000000000000000000000000000000007bffffffffffffffffffffffffffffffffffffffffffffffffffffffff1916827bffffffffffffffffffffffffffffffffffffffffffffffffffffffff1916145b806104d557506104d48261106d565b5b9050919050565b6060600080546104eb90612759565b80601f016020809104026020016040519081016040528092919081815260200182805461051790612759565b80156105645780601f1061053957610100808354040283529160200191610564565b820191906000526020600020905b81548152906001019060200180831161054757829003601f168201915b5050505050905090565b6000610579826110d7565b6004600083815260200190815260200160002060009054906101000a900473ffffffffffffffffffffffffffffffffffffffff169050919050565b60006105bf82610ae8565b90508073ffffffffffffffffffffffffffffffffffffffff168373ffffffffffffffffffffffffffffffffffffffff160361062f576040517f08c379a0000000000000000000000000000000000000000000000000000000008152600401610626906127fc565b60405180910390fd5b8073ffffffffffffffffffffffffffffffffffffffff1661064e611122565b73ffffffffffffffffffffffffffffffffffffffff16148061067d575061067c81610677611122565b610d97565b5b6106bc576040517f08c379a00000000000000000000000000000000000000000000000000000000081526004016106b39061288e565b60405180910390fd5b6106c6838361112a565b505050565b6106dc6106d6611122565b826111e3565b61071b576040517f08c379a000000000000000000000000000000000000000000000000000000000815260040161071290612920565b60405180910390fd5b610726838383611278565b505050565b606080600060065467ffffffffffffffff81111561074c5761074b61237c565b5b60405190808252806020026020018201604052801561078557816020015b610772611dc2565b81526020019060019003908161076a5790505b509050600060065467ffffffffffffffff8111156107a6576107a561237c565b5b6040519080825280602002602001820160405280156107d45781602001602082028036833780820191505090505b50905060005b6006548110156109d1576000600760008381526020019081526020016000206040518060800160405290816000820160009054906101000a900473ffffffffffffffffffffffffffffffffffffffff1673ffffffffffffffffffffffffffffffffffffffff1673ffffffffffffffffffffffffffffffffffffffff1681526020016001820154815260200160028201805461087490612759565b80601f01602080910402602001604051908101604052809291908181526020018280546108a090612759565b80156108ed5780601f106108c2576101008083540402835291602001916108ed565b820191906000526020600020905b8154815290600101906020018083116108d057829003601f168201915b5050505050815260200160038201548152505090506040518060800160405280826000015173ffffffffffffffffffffffffffffffffffffffff1681526020018260200151815260200182604001518152602001826060015181525084838151811061095c5761095b612940565b5b602002602001018190525061097082610ae8565b83838151811061098357610982612940565b5b602002602001019073ffffffffffffffffffffffffffffffffffffffff16908173ffffffffffffffffffffffffffffffffffffffff16815250505080806109c99061299e565b9150506107da565b5081819350935050509091565b6109f983838360405180602001604052806000815250610ccd565b505050565b610a0a33600654611571565b60405180608001604052803373ffffffffffffffffffffffffffffffffffffffff16815260200182815260200183815260200160065481525060076000600654815260200190815260200160002060008201518160000160006101000a81548173ffffffffffffffffffffffffffffffffffffffff021916908373ffffffffffffffffffffffffffffffffffffffff160217905550602082015181600101556040820151816002019081610abe9190612b92565b506060820151816003015590505060066000815480929190610adf9061299e565b91905055505050565b600080610af48361178e565b9050600073ffffffffffffffffffffffffffffffffffffffff168173ffffffffffffffffffffffffffffffffffffffff1603610b65576040517f08c379a0000000000000000000000000000000000000000000000000000000008152600401610b5c90612cb0565b60405180910390fd5b80915050919050565b60008073ffffffffffffffffffffffffffffffffffffffff168273ffffffffffffffffffffffffffffffffffffffff1603610bde576040517f08c379a0000000000000000000000000000000000000000000000000000000008152600401610bd590612d42565b60405180910390fd5b600360008373ffffffffffffffffffffffffffffffffffffffff1673ffffffffffffffffffffffffffffffffffffffff168152602001908152602001600020549050919050565b606060018054610c3490612759565b80601f0160208091040260200160405190810160405280929190818152602001828054610c6090612759565b8015610cad5780601f10610c8257610100808354040283529160200191610cad565b820191906000526020600020905b815481529060010190602001808311610c9057829003601f168201915b5050505050905090565b610cc9610cc2611122565b83836117cb565b5050565b610cde610cd8611122565b836111e3565b610d1d576040517f08c379a0000000000000000000000000000000000000000000000000000000008152600401610d1490612920565b60405180910390fd5b610d2984848484611937565b50505050565b6060610d3a826110d7565b6000610d44611993565b90506000815111610d645760405180602001604052806000815250610d8f565b80610d6e846119aa565b604051602001610d7f929190612d9e565b6040516020818303038152906040525b915050919050565b6000600560008473ffffffffffffffffffffffffffffffffffffffff1673ffffffffffffffffffffffffffffffffffffffff16815260200190815260200160002060008373ffffffffffffffffffffffffffffffffffffffff1673ffffffffffffffffffffffffffffffffffffffff16815260200190815260200160002060009054906101000a900460ff16905092915050565b6000600760008381526020019081526020016000206040518060800160405290816000820160009054906101000a900473ffffffffffffffffffffffffffffffffffffffff1673ffffffffffffffffffffffffffffffffffffffff1673ffffffffffffffffffffffffffffffffffffffff16815260200160018201548152602001600282018054610ebb90612759565b80601f0160208091040260200160405190810160405280929190818152602001828054610ee790612759565b8015610f345780601f10610f0957610100808354040283529160200191610f34565b820191906000526020600020905b815481529060010190602001808311610f1757829003601f168201915b505050505081526020016003820154815250509050600073ffffffffffffffffffffffffffffffffffffffff16816000015173ffffffffffffffffffffffffffffffffffffffff1603610fbc576040517f08c379a0000000000000000000000000000000000000000000000000000000008152600401610fb390612e0e565b60405180910390fd5b8060200151341015611003576040517f08c379a0000000000000000000000000000000000000000000000000000000008152600401610ffa90612e7a565b60405180910390fd5b60006127106101f4346110169190612e9a565b6110209190612f0b565b905081600001515061103183610ae8565b73ffffffffffffffffffffffffffffffffffffffff1681346110539190612f3c565b505061106861106184610ae8565b3385611278565b505050565b60007f01ffc9a7000000000000000000000000000000000000000000000000000000007bffffffffffffffffffffffffffffffffffffffffffffffffffffffff1916827bffffffffffffffffffffffffffffffffffffffffffffffffffffffff1916149050919050565b6110e081611a78565b61111f576040517f08c379a000000000000000000000000000000000000000000000000000000000815260040161111690612cb0565b60405180910390fd5b50565b600033905090565b816004600083815260200190815260200160002060006101000a81548173ffffffffffffffffffffffffffffffffffffffff021916908373ffffffffffffffffffffffffffffffffffffffff160217905550808273ffffffffffffffffffffffffffffffffffffffff1661119d83610ae8565b73ffffffffffffffffffffffffffffffffffffffff167f8c5be1e5ebec7d5bd14f71427d1e84f3dd0314c0f7b2291e5b200ac8c7c3b92560405160405180910390a45050565b6000806111ef83610ae8565b90508073ffffffffffffffffffffffffffffffffffffffff168473ffffffffffffffffffffffffffffffffffffffff16148061123157506112308185610d97565b5b8061126f57508373ffffffffffffffffffffffffffffffffffffffff166112578461056e565b73ffffffffffffffffffffffffffffffffffffffff16145b91505092915050565b8273ffffffffffffffffffffffffffffffffffffffff1661129882610ae8565b73ffffffffffffffffffffffffffffffffffffffff16146112ee576040517f08c379a00000000000000000000000000000000000000000000000000000000081526004016112e590612fe2565b60405180910390fd5b600073ffffffffffffffffffffffffffffffffffffffff168273ffffffffffffffffffffffffffffffffffffffff160361135d576040517f08c379a000000000000000000000000000000000000000000000000000000000815260040161135490613074565b60405180910390fd5b61136a8383836001611ab9565b8273ffffffffffffffffffffffffffffffffffffffff1661138a82610ae8565b73ffffffffffffffffffffffffffffffffffffffff16146113e0576040517f08c379a00000000000000000000000000000000000000000000000000000000081526004016113d790612fe2565b60405180910390fd5b6004600082815260200190815260200160002060006101000a81549073ffffffffffffffffffffffffffffffffffffffff02191690556001600360008573ffffffffffffffffffffffffffffffffffffffff1673ffffffffffffffffffffffffffffffffffffffff168152602001908152602001600020600082825403925050819055506001600360008473ffffffffffffffffffffffffffffffffffffffff1673ffffffffffffffffffffffffffffffffffffffff16815260200190815260200160002060008282540192505081905550816002600083815260200190815260200160002060006101000a81548173ffffffffffffffffffffffffffffffffffffffff021916908373ffffffffffffffffffffffffffffffffffffffff160217905550808273ffffffffffffffffffffffffffffffffffffffff168473ffffffffffffffffffffffffffffffffffffffff167fddf252ad1be2c89b69c2b068fc378daa952ba7f163c4a11628f55a4df523b3ef60405160405180910390a461156c8383836001611abf565b505050565b600073ffffffffffffffffffffffffffffffffffffffff168273ffffffffffffffffffffffffffffffffffffffff16036115e0576040517f08c379a00000000000000000000000000000000000000000000000000000000081526004016115d7906130e0565b60405180910390fd5b6115e981611a78565b15611629576040517f08c379a00000000000000000000000000000000000000000000000000000000081526004016116209061314c565b60405180910390fd5b611637600083836001611ab9565b61164081611a78565b15611680576040517f08c379a00000000000000000000000000000000000000000000000000000000081526004016116779061314c565b60405180910390fd5b6001600360008473ffffffffffffffffffffffffffffffffffffffff1673ffffffffffffffffffffffffffffffffffffffff16815260200190815260200160002060008282540192505081905550816002600083815260200190815260200160002060006101000a81548173ffffffffffffffffffffffffffffffffffffffff021916908373ffffffffffffffffffffffffffffffffffffffff160217905550808273ffffffffffffffffffffffffffffffffffffffff16600073ffffffffffffffffffffffffffffffffffffffff167fddf252ad1be2c89b69c2b068fc378daa952ba7f163c4a11628f55a4df523b3ef60405160405180910390a461178a600083836001611abf565b5050565b60006002600083815260200190815260200160002060009054906101000a900473ffffffffffffffffffffffffffffffffffffffff169050919050565b8173ffffffffffffffffffffffffffffffffffffffff168373ffffffffffffffffffffffffffffffffffffffff1603611839576040517f08c379a0000000000000000000000000000000000000000000000000000000008152600401611830906131b8565b60405180910390fd5b80600560008573ffffffffffffffffffffffffffffffffffffffff1673ffffffffffffffffffffffffffffffffffffffff16815260200190815260200160002060008473ffffffffffffffffffffffffffffffffffffffff1673ffffffffffffffffffffffffffffffffffffffff16815260200190815260200160002060006101000a81548160ff0219169083151502179055508173ffffffffffffffffffffffffffffffffffffffff168373ffffffffffffffffffffffffffffffffffffffff167f17307eab39ab6107e8899845ad3d59bd9653f200f220920489ca2b5937696c318360405161192a9190611eb4565b60405180910390a3505050565b611942848484611278565b61194e84848484611ac5565b61198d576040517f08c379a00000000000000000000000000000000000000000000000000000000081526004016119849061324a565b60405180910390fd5b50505050565b606060405180602001604052806000815250905090565b6060600060016119b984611c4c565b01905060008167ffffffffffffffff8111156119d8576119d761237c565b5b6040519080825280601f01601f191660200182016040528015611a0a5781602001600182028036833780820191505090505b509050600082602001820190505b600115611a6d578080600190039150507f3031323334353637383961626364656600000000000000000000000000000000600a86061a8153600a8581611a6157611a60612edc565b5b04945060008503611a18575b819350505050919050565b60008073ffffffffffffffffffffffffffffffffffffffff16611a9a8361178e565b73ffffffffffffffffffffffffffffffffffffffff1614159050919050565b50505050565b50505050565b6000611ae68473ffffffffffffffffffffffffffffffffffffffff16611d9f565b15611c3f578373ffffffffffffffffffffffffffffffffffffffff1663150b7a02611b0f611122565b8786866040518563ffffffff1660e01b8152600401611b3194939291906132bf565b6020604051808303816000875af1925050508015611b6d57506040513d601f19601f82011682018060405250810190611b6a9190613320565b60015b611bef573d8060008114611b9d576040519150601f19603f3d011682016040523d82523d6000602084013e611ba2565b606091505b506000815103611be7576040517f08c379a0000000000000000000000000000000000000000000000000000000008152600401611bde9061324a565b60405180910390fd5b805181602001fd5b63150b7a0260e01b7bffffffffffffffffffffffffffffffffffffffffffffffffffffffff1916817bffffffffffffffffffffffffffffffffffffffffffffffffffffffff191614915050611c44565b600190505b949350505050565b600080600090507a184f03e93ff9f4daa797ed6e38ed64bf6a1f0100000000000000008310611caa577a184f03e93ff9f4daa797ed6e38ed64bf6a1f0100000000000000008381611ca057611c9f612edc565b5b0492506040810190505b6d04ee2d6d415b85acef81000000008310611ce7576d04ee2d6d415b85acef81000000008381611cdd57611cdc612edc565b5b0492506020810190505b662386f26fc100008310611d1657662386f26fc100008381611d0c57611d0b612edc565b5b0492506010810190505b6305f5e1008310611d3f576305f5e1008381611d3557611d34612edc565b5b0492506008810190505b6127108310611d64576127108381611d5a57611d59612edc565b5b0492506004810190505b60648310611d875760648381611d7d57611d7c612edc565b5b0492506002810190505b600a8310611d96576001810190505b80915050919050565b6000808273ffffffffffffffffffffffffffffffffffffffff163b119050919050565b6040518060800160405280600073ffffffffffffffffffffffffffffffffffffffff1681526020016000815260200160608152602001600081525090565b6000604051905090565b600080fd5b600080fd5b60007fffffffff0000000000000000000000000000000000000000000000000000000082169050919050565b611e4981611e14565b8114611e5457600080fd5b50565b600081359050611e6681611e40565b92915050565b600060208284031215611e8257611e81611e0a565b5b6000611e9084828501611e57565b91505092915050565b60008115159050919050565b611eae81611e99565b82525050565b6000602082019050611ec96000830184611ea5565b92915050565b600081519050919050565b600082825260208201905092915050565b60005b83811015611f09578082015181840152602081019050611eee565b60008484015250505050565b6000601f19601f8301169050919050565b6000611f3182611ecf565b611f3b8185611eda565b9350611f4b818560208601611eeb565b611f5481611f15565b840191505092915050565b60006020820190508181036000830152611f798184611f26565b905092915050565b6000819050919050565b611f9481611f81565b8114611f9f57600080fd5b50565b600081359050611fb181611f8b565b92915050565b600060208284031215611fcd57611fcc611e0a565b5b6000611fdb84828501611fa2565b91505092915050565b600073ffffffffffffffffffffffffffffffffffffffff82169050919050565b600061200f82611fe4565b9050919050565b61201f81612004565b82525050565b600060208201905061203a6000830184612016565b92915050565b61204981612004565b811461205457600080fd5b50565b60008135905061206681612040565b92915050565b6000806040838503121561208357612082611e0a565b5b600061209185828601612057565b92505060206120a285828601611fa2565b9150509250929050565b6000806000606084860312156120c5576120c4611e0a565b5b60006120d386828701612057565b93505060206120e486828701612057565b92505060406120f586828701611fa2565b9150509250925092565b600081519050919050565b600082825260208201905092915050565b6000819050602082019050919050565b61213481612004565b82525050565b61214381611f81565b82525050565b600082825260208201905092915050565b600061216582611ecf565b61216f8185612149565b935061217f818560208601611eeb565b61218881611f15565b840191505092915050565b60006080830160008301516121ab600086018261212b565b5060208301516121be602086018261213a565b50604083015184820360408601526121d6828261215a565b91505060608301516121eb606086018261213a565b508091505092915050565b60006122028383612193565b905092915050565b6000602082019050919050565b6000612222826120ff565b61222c818561210a565b93508360208202850161223e8561211b565b8060005b8581101561227a578484038952815161225b85826121f6565b94506122668361220a565b925060208a01995050600181019050612242565b50829750879550505050505092915050565b600081519050919050565b600082825260208201905092915050565b6000819050602082019050919050565b60006122c4838361212b565b60208301905092915050565b6000602082019050919050565b60006122e88261228c565b6122f28185612297565b93506122fd836122a8565b8060005b8381101561232e57815161231588826122b8565b9750612320836122d0565b925050600181019050612301565b5085935050505092915050565b600060408201905081810360008301526123558185612217565b9050818103602083015261236981846122dd565b90509392505050565b600080fd5b600080fd5b7f4e487b7100000000000000000000000000000000000000000000000000000000600052604160045260246000fd5b6123b482611f15565b810181811067ffffffffffffffff821117156123d3576123d261237c565b5b80604052505050565b60006123e6611e00565b90506123f282826123ab565b919050565b600067ffffffffffffffff8211156124125761241161237c565b5b61241b82611f15565b9050602081019050919050565b82818337600083830152505050565b600061244a612445846123f7565b6123dc565b90508281526020810184848401111561246657612465612377565b5b612471848285612428565b509392505050565b600082601f83011261248e5761248d612372565b5b813561249e848260208601612437565b91505092915050565b600080604083850312156124be576124bd611e0a565b5b600083013567ffffffffffffffff8111156124dc576124db611e0f565b5b6124e885828601612479565b92505060206124f985828601611fa2565b9150509250929050565b60006020828403121561251957612518611e0a565b5b600061252784828501612057565b91505092915050565b61253981611f81565b82525050565b60006020820190506125546000830184612530565b92915050565b61256381611e99565b811461256e57600080fd5b50565b6000813590506125808161255a565b92915050565b6000806040838503121561259d5761259c611e0a565b5b60006125ab85828601612057565b92505060206125bc85828601612571565b9150509250929050565b600067ffffffffffffffff8211156125e1576125e061237c565b5b6125ea82611f15565b9050602081019050919050565b600061260a612605846125c6565b6123dc565b90508281526020810184848401111561262657612625612377565b5b612631848285612428565b509392505050565b600082601f83011261264e5761264d612372565b5b813561265e8482602086016125f7565b91505092915050565b6000806000806080858703121561268157612680611e0a565b5b600061268f87828801612057565b94505060206126a087828801612057565b93505060406126b187828801611fa2565b925050606085013567ffffffffffffffff8111156126d2576126d1611e0f565b5b6126de87828801612639565b91505092959194509250565b6000806040838503121561270157612700611e0a565b5b600061270f85828601612057565b925050602061272085828601612057565b9150509250929050565b7f4e487b7100000000000000000000000000000000000000000000000000000000600052602260045260246000fd5b6000600282049050600182168061277157607f821691505b6020821081036127845761278361272a565b5b50919050565b7f4552433732313a20617070726f76616c20746f2063757272656e74206f776e6560008201527f7200000000000000000000000000000000000000000000000000000000000000602082015250565b60006127e6602183611eda565b91506127f18261278a565b604082019050919050565b60006020820190508181036000830152612815816127d9565b9050919050565b7f4552433732313a20617070726f76652063616c6c6572206973206e6f7420746f60008201527f6b656e206f776e6572206f7220617070726f76656420666f7220616c6c000000602082015250565b6000612878603d83611eda565b91506128838261281c565b604082019050919050565b600060208201905081810360008301526128a78161286b565b9050919050565b7f4552433732313a2063616c6c6572206973206e6f7420746f6b656e206f776e6560008201527f72206f7220617070726f76656400000000000000000000000000000000000000602082015250565b600061290a602d83611eda565b9150612915826128ae565b604082019050919050565b60006020820190508181036000830152612939816128fd565b9050919050565b7f4e487b7100000000000000000000000000000000000000000000000000000000600052603260045260246000fd5b7f4e487b7100000000000000000000000000000000000000000000000000000000600052601160045260246000fd5b60006129a982611f81565b91507fffffffffffffffffffffffffffffffffffffffffffffffffffffffffffffffff82036129db576129da61296f565b5b600182019050919050565b60008190508160005260206000209050919050565b60006020601f8301049050919050565b600082821b905092915050565b600060088302612a487fffffffffffffffffffffffffffffffffffffffffffffffffffffffffffffffff82612a0b565b612a528683612a0b565b95508019841693508086168417925050509392505050565b6000819050919050565b6000612a8f612a8a612a8584611f81565b612a6a565b611f81565b9050919050565b6000819050919050565b612aa983612a74565b612abd612ab582612a96565b848454612a18565b825550505050565b600090565b612ad2612ac5565b612add818484612aa0565b505050565b5b81811015612b0157612af6600082612aca565b600181019050612ae3565b5050565b601f821115612b4657612b17816129e6565b612b20846129fb565b81016020851015612b2f578190505b612b43612b3b856129fb565b830182612ae2565b50505b505050565b600082821c905092915050565b6000612b6960001984600802612b4b565b1980831691505092915050565b6000612b828383612b58565b9150826002028217905092915050565b612b9b82611ecf565b67ffffffffffffffff811115612bb457612bb361237c565b5b612bbe8254612759565b612bc9828285612b05565b600060209050601f831160018114612bfc5760008415612bea578287015190505b612bf48582612b76565b865550612c5c565b601f198416612c0a866129e6565b60005b82811015612c3257848901518255600182019150602085019450602081019050612c0d565b86831015612c4f5784890151612c4b601f891682612b58565b8355505b6001600288020188555050505b505050505050565b7f4552433732313a20696e76616c696420746f6b656e2049440000000000000000600082015250565b6000612c9a601883611eda565b9150612ca582612c64565b602082019050919050565b60006020820190508181036000830152612cc981612c8d565b9050919050565b7f4552433732313a2061646472657373207a65726f206973206e6f74206120766160008201527f6c6964206f776e65720000000000000000000000000000000000000000000000602082015250565b6000612d2c602983611eda565b9150612d3782612cd0565b604082019050919050565b60006020820190508181036000830152612d5b81612d1f565b9050919050565b600081905092915050565b6000612d7882611ecf565b612d828185612d62565b9350612d92818560208601611eeb565b80840191505092915050565b6000612daa8285612d6d565b9150612db68284612d6d565b91508190509392505050565b7f4572726f723a20506f737420646f6573206e6f74206578697374000000000000600082015250565b6000612df8601a83611eda565b9150612e0382612dc2565b602082019050919050565b60006020820190508181036000830152612e2781612deb565b9050919050565b7f5075726368617365207072696365206e6f74206d657400000000000000000000600082015250565b6000612e64601683611eda565b9150612e6f82612e2e565b602082019050919050565b60006020820190508181036000830152612e9381612e57565b9050919050565b6000612ea582611f81565b9150612eb083611f81565b9250828202612ebe81611f81565b91508282048414831517612ed557612ed461296f565b5b5092915050565b7f4e487b7100000000000000000000000000000000000000000000000000000000600052601260045260246000fd5b6000612f1682611f81565b9150612f2183611f81565b925082612f3157612f30612edc565b5b828204905092915050565b6000612f4782611f81565b9150612f5283611f81565b9250828203905081811115612f6a57612f6961296f565b5b92915050565b7f4552433732313a207472616e736665722066726f6d20696e636f72726563742060008201527f6f776e6572000000000000000000000000000000000000000000000000000000602082015250565b6000612fcc602583611eda565b9150612fd782612f70565b604082019050919050565b60006020820190508181036000830152612ffb81612fbf565b9050919050565b7f4552433732313a207472616e7366657220746f20746865207a65726f2061646460008201527f7265737300000000000000000000000000000000000000000000000000000000602082015250565b600061305e602483611eda565b915061306982613002565b604082019050919050565b6000602082019050818103600083015261308d81613051565b9050919050565b7f4552433732313a206d696e7420746f20746865207a65726f2061646472657373600082015250565b60006130ca602083611eda565b91506130d582613094565b602082019050919050565b600060208201905081810360008301526130f9816130bd565b9050919050565b7f4552433732313a20746f6b656e20616c7265616479206d696e74656400000000600082015250565b6000613136601c83611eda565b915061314182613100565b602082019050919050565b6000602082019050818103600083015261316581613129565b9050919050565b7f4552433732313a20617070726f766520746f2063616c6c657200000000000000600082015250565b60006131a2601983611eda565b91506131ad8261316c565b602082019050919050565b600060208201905081810360008301526131d181613195565b9050919050565b7f4552433732313a207472616e7366657220746f206e6f6e20455243373231526560008201527f63656976657220696d706c656d656e7465720000000000000000000000000000602082015250565b6000613234603283611eda565b915061323f826131d8565b604082019050919050565b6000602082019050818103600083015261326381613227565b9050919050565b600081519050919050565b600082825260208201905092915050565b60006132918261326a565b61329b8185613275565b93506132ab818560208601611eeb565b6132b481611f15565b840191505092915050565b60006080820190506132d46000830187612016565b6132e16020830186612016565b6132ee6040830185612530565b81810360608301526133008184613286565b905095945050505050565b60008151905061331a81611e40565b92915050565b60006020828403121561333657613335611e0a565b5b60006133448482850161330b565b9150509291505056fea26469706673582212205a0a60758de4d0535fc9fa0be57d2d2c6dc799c9f1399cfe01685ba8e081601464736f6c63430008130033",
  "immutableReferences": {},
  "source": "pragma solidity >=0.4.22 <0.9.0;\n\nimport \"@openzeppelin/contracts/token/ERC721/ERC721.sol\";\n\ncontract SocialDapp is ERC721 {\n    uint256 id;\n\n    struct Post {\n        address originalPoster;\n        uint256 price;\n        string text;\n        uint256 id;\n    }\n\n    mapping(uint256 => Post) idToPost;\n\n    constructor() ERC721(\"ETH-SOCIAL-DAPP-NFT\", \"SDP\") {\n        id = 0;\n    }\n\n    /**\n     * Create a post as am NFT\n     */\n    function post(string memory text, uint256 price) external {\n        _mint(msg.sender, id);\n        idToPost[id] = Post(msg.sender, price, text, id);\n        id++;\n    }\n\n    /**\n     * Get a list of all posts\n     */\n    function getPosts() public view returns (Post[] memory, address[] memory) {\n        Post[] memory posts = new Post[](id);\n        address[] memory owners = new address[](id);\n        for (uint256 i = 0; i < id; i++) {\n            Post memory p = idToPost[i];\n            posts[i] = Post(p.originalPoster, p.price, p.text, p.id);\n            owners[i] = ownerOf(i);\n        }\n        return (posts, owners);\n    }\n\n    /**\n     * Purchase a post as a non-owner\n     */\n    function purchase(uint256 postId) external payable {\n        Post memory targetPost = idToPost[postId];\n        require(\n            targetPost.originalPoster != address(0),\n            \"Error: Post does not exist\"\n        );\n        require(msg.value >= targetPost.price, \"Purchase price not met\");\n\n        // Transfer ownership and pay royalties\n        uint256 royalty = (msg.value * 500) / 10000;\n        payable(targetPost.originalPoster).call{value: royalty};\n        payable(ownerOf(postId)).call{value: msg.value - royalty};\n        _transfer(ownerOf(postId), msg.sender, postId);\n    }\n}\n",
  "sourcePath": "/Users/turbothinh/Code/Maintaining/eth-social-dapp/backend/contracts/Core.sol",
  "compiler": {
    "name": "solc",
    "version": "0.8.19+commit.7dd6d404.Emscripten.clang"
  },
  "schemaVersion": "3.4.13",
  "updatedAt": "2023-05-12T10:23:46.537Z",
  "networkType": "ethereum",
  "devdoc": {
    "events": {
      "Approval(address,address,uint256)": {
        "details": "Emitted when `owner` enables `approved` to manage the `tokenId` token."
      },
      "ApprovalForAll(address,address,bool)": {
        "details": "Emitted when `owner` enables or disables (`approved`) `operator` to manage all of its assets."
      },
      "Transfer(address,address,uint256)": {
        "details": "Emitted when `tokenId` token is transferred from `from` to `to`."
      }
    },
    "kind": "dev",
    "methods": {
      "approve(address,uint256)": {
        "details": "See {IERC721-approve}."
      },
      "balanceOf(address)": {
        "details": "See {IERC721-balanceOf}."
      },
      "getApproved(uint256)": {
        "details": "See {IERC721-getApproved}."
      },
      "isApprovedForAll(address,address)": {
        "details": "See {IERC721-isApprovedForAll}."
      },
      "name()": {
        "details": "See {IERC721Metadata-name}."
      },
      "ownerOf(uint256)": {
        "details": "See {IERC721-ownerOf}."
      },
      "safeTransferFrom(address,address,uint256)": {
        "details": "See {IERC721-safeTransferFrom}."
      },
      "safeTransferFrom(address,address,uint256,bytes)": {
        "details": "See {IERC721-safeTransferFrom}."
      },
      "setApprovalForAll(address,bool)": {
        "details": "See {IERC721-setApprovalForAll}."
      },
      "supportsInterface(bytes4)": {
        "details": "See {IERC165-supportsInterface}."
      },
      "symbol()": {
        "details": "See {IERC721Metadata-symbol}."
      },
      "tokenURI(uint256)": {
        "details": "See {IERC721Metadata-tokenURI}."
      },
      "transferFrom(address,address,uint256)": {
        "details": "See {IERC721-transferFrom}."
      }
    },
    "version": 1
  },
  "userdoc": {
    "kind": "user",
    "methods": {
      "getPosts()": {
        "notice": "Get a list of all posts"
      },
      "post(string,uint256)": {
        "notice": "Create a post as am NFT"
      },
      "purchase(uint256)": {
        "notice": "Purchase a post as a non-owner"
      }
    },
    "version": 1
  }
}